{
  "contractName": "CollatPool",
  "abi": [
    {
      "constant": true,
      "inputs": [],
      "name": "owner",
      "outputs": [
        {
          "name": "",
          "type": "address"
        }
      ],
      "payable": false,
      "stateMutability": "view",
      "type": "function"
    },
    {
      "constant": true,
      "inputs": [],
      "name": "cpty",
      "outputs": [
        {
          "name": "",
          "type": "address"
        }
      ],
      "payable": false,
      "stateMutability": "view",
      "type": "function"
    },
    {
      "inputs": [],
      "payable": false,
      "stateMutability": "nonpayable",
      "type": "constructor"
    },
    {
      "constant": false,
      "inputs": [],
      "name": "makeContribution",
      "outputs": [],
      "payable": true,
      "stateMutability": "payable",
      "type": "function"
    },
    {
      "constant": true,
      "inputs": [],
      "name": "checkContractBalance",
      "outputs": [
        {
          "name": "",
          "type": "uint256"
        }
      ],
      "payable": false,
      "stateMutability": "view",
      "type": "function"
    },
    {
      "constant": true,
      "inputs": [
        {
          "name": "_cpty",
          "type": "address"
        }
      ],
      "name": "checkCptyBalance",
      "outputs": [
        {
          "name": "",
          "type": "uint256"
        }
      ],
      "payable": false,
      "stateMutability": "view",
      "type": "function"
    }
  ],
  "bytecode": "0x608060405234801561001057600080fd5b50336000806101000a81548173ffffffffffffffffffffffffffffffffffffffff021916908373ffffffffffffffffffffffffffffffffffffffff1602179055506102d1806100606000396000f30060806040526004361061006d576000357c0100000000000000000000000000000000000000000000000000000000900463ffffffff168063386705631461007257806350312c9e1461007c5780636436f74e146100a75780638da5cb5b146100fe578063ff1545be14610155575b600080fd5b61007a6101ac565b005b34801561008857600080fd5b506100916101f2565b6040518082815260200191505060405180910390f35b3480156100b357600080fd5b506100e8600480360381019080803573ffffffffffffffffffffffffffffffffffffffff169060200190929190505050610211565b6040518082815260200191505060405180910390f35b34801561010a57600080fd5b5061011361025a565b604051808273ffffffffffffffffffffffffffffffffffffffff1673ffffffffffffffffffffffffffffffffffffffff16815260200191505060405180910390f35b34801561016157600080fd5b5061016a61027f565b604051808273ffffffffffffffffffffffffffffffffffffffff1673ffffffffffffffffffffffffffffffffffffffff16815260200191505060405180910390f35b34600260003373ffffffffffffffffffffffffffffffffffffffff1673ffffffffffffffffffffffffffffffffffffffff16815260200190815260200160002081905550565b60003073ffffffffffffffffffffffffffffffffffffffff1631905090565b6000600260008373ffffffffffffffffffffffffffffffffffffffff1673ffffffffffffffffffffffffffffffffffffffff168152602001908152602001600020549050919050565b6000809054906101000a900473ffffffffffffffffffffffffffffffffffffffff1681565b600160009054906101000a900473ffffffffffffffffffffffffffffffffffffffff16815600a165627a7a7230582077e913239523311dbf76961b8f65ae97ef2f769c76cee9a4996d6d0330cf634c0029",
  "source": "pragma solidity ^0.4.24;\r\n\r\ncontract CollatPool {\r\n    address public owner;\r\n    address public cpty;\r\n    mapping(address => uint) contributions;\r\n    \r\n    constructor() public {\r\n        owner = msg.sender;\r\n        //cpty = _cpty;\r\n    }\r\n    \r\n    // constructor(address _cpty) public {\r\n    //     owner = msg.sender;\r\n    //     cpty = _cpty;\r\n    // }\r\n    \r\n    function makeContribution() public payable {\r\n        contributions[msg.sender] = msg.value;\r\n    }\r\n    \r\n    function checkContractBalance() public view returns (uint) {\r\n        return this.balance;\r\n    }\r\n    \r\n    function checkCptyBalance(address _cpty) public view returns (uint) {\r\n        return contributions[_cpty];\r\n    }\r\n}",
  "sourcePath": "C:\\Users\\Ben\\Desktop\\Offline Projects\\CollatPool\\contracts\\CollatPool.sol",
  "compiler": {
    "name": "solc",
    "version": "0.4.24+commit.e67f0147.Emscripten.clang"
  },
  "schemaVersion": "2.0.1",
  "updatedAt": "2018-09-03T11:51:25.311Z"
}